{
  "_format": "hh-sol-artifact-1",
  "contractName": "Mementory",
  "sourceName": "contracts/Mementory.sol",
  "abi": [
    {
      "inputs": [
        {
          "internalType": "string",
          "name": "_tokenName",
          "type": "string"
        },
        {
          "internalType": "string",
          "name": "_tokenSymbol",
          "type": "string"
        }
      ],
      "stateMutability": "nonpayable",
      "type": "constructor"
    },
    {
      "anonymous": false,
      "inputs": [
        {
          "indexed": true,
          "internalType": "address",
          "name": "owner",
          "type": "address"
        },
        {
          "indexed": true,
          "internalType": "address",
          "name": "approved",
          "type": "address"
        },
        {
          "indexed": true,
          "internalType": "uint256",
          "name": "tokenId",
          "type": "uint256"
        }
      ],
      "name": "Approval",
      "type": "event"
    },
    {
      "anonymous": false,
      "inputs": [
        {
          "indexed": true,
          "internalType": "address",
          "name": "owner",
          "type": "address"
        },
        {
          "indexed": true,
          "internalType": "address",
          "name": "operator",
          "type": "address"
        },
        {
          "indexed": false,
          "internalType": "bool",
          "name": "approved",
          "type": "bool"
        }
      ],
      "name": "ApprovalForAll",
      "type": "event"
    },
    {
      "anonymous": false,
      "inputs": [
        {
          "indexed": true,
          "internalType": "address",
          "name": "previousOwner",
          "type": "address"
        },
        {
          "indexed": true,
          "internalType": "address",
          "name": "newOwner",
          "type": "address"
        }
      ],
      "name": "OwnershipTransferred",
      "type": "event"
    },
    {
      "anonymous": false,
      "inputs": [
        {
          "indexed": true,
          "internalType": "address",
          "name": "from",
          "type": "address"
        },
        {
          "indexed": true,
          "internalType": "address",
          "name": "to",
          "type": "address"
        },
        {
          "indexed": true,
          "internalType": "uint256",
          "name": "tokenId",
          "type": "uint256"
        }
      ],
      "name": "Transfer",
      "type": "event"
    },
    {
      "inputs": [
        {
          "internalType": "address",
          "name": "to",
          "type": "address"
        },
        {
          "internalType": "uint256",
          "name": "tokenId",
          "type": "uint256"
        }
      ],
      "name": "approve",
      "outputs": [],
      "stateMutability": "nonpayable",
      "type": "function"
    },
    {
      "inputs": [
        {
          "internalType": "address",
          "name": "owner",
          "type": "address"
        }
      ],
      "name": "balanceOf",
      "outputs": [
        {
          "internalType": "uint256",
          "name": "",
          "type": "uint256"
        }
      ],
      "stateMutability": "view",
      "type": "function"
    },
    {
      "inputs": [
        {
          "internalType": "uint256",
          "name": "_tokenId",
          "type": "uint256"
        }
      ],
      "name": "burnToken",
      "outputs": [],
      "stateMutability": "nonpayable",
      "type": "function"
    },
    {
      "inputs": [
        {
          "internalType": "string",
          "name": "_tokenURI",
          "type": "string"
        }
      ],
      "name": "createToken",
      "outputs": [
        {
          "internalType": "uint256",
          "name": "",
          "type": "uint256"
        }
      ],
      "stateMutability": "nonpayable",
      "type": "function"
    },
    {
      "inputs": [
        {
          "internalType": "uint256",
          "name": "tokenId",
          "type": "uint256"
        }
      ],
      "name": "getApproved",
      "outputs": [
        {
          "internalType": "address",
          "name": "",
          "type": "address"
        }
      ],
      "stateMutability": "view",
      "type": "function"
    },
    {
      "inputs": [
        {
          "internalType": "address",
          "name": "owner",
          "type": "address"
        },
        {
          "internalType": "address",
          "name": "operator",
          "type": "address"
        }
      ],
      "name": "isApprovedForAll",
      "outputs": [
        {
          "internalType": "bool",
          "name": "",
          "type": "bool"
        }
      ],
      "stateMutability": "view",
      "type": "function"
    },
    {
      "inputs": [],
      "name": "name",
      "outputs": [
        {
          "internalType": "string",
          "name": "",
          "type": "string"
        }
      ],
      "stateMutability": "view",
      "type": "function"
    },
    {
      "inputs": [],
      "name": "owner",
      "outputs": [
        {
          "internalType": "address",
          "name": "",
          "type": "address"
        }
      ],
      "stateMutability": "view",
      "type": "function"
    },
    {
      "inputs": [
        {
          "internalType": "uint256",
          "name": "tokenId",
          "type": "uint256"
        }
      ],
      "name": "ownerOf",
      "outputs": [
        {
          "internalType": "address",
          "name": "",
          "type": "address"
        }
      ],
      "stateMutability": "view",
      "type": "function"
    },
    {
      "inputs": [],
      "name": "renounceOwnership",
      "outputs": [],
      "stateMutability": "nonpayable",
      "type": "function"
    },
    {
      "inputs": [
        {
          "internalType": "address",
          "name": "from",
          "type": "address"
        },
        {
          "internalType": "address",
          "name": "to",
          "type": "address"
        },
        {
          "internalType": "uint256",
          "name": "tokenId",
          "type": "uint256"
        }
      ],
      "name": "safeTransferFrom",
      "outputs": [],
      "stateMutability": "nonpayable",
      "type": "function"
    },
    {
      "inputs": [
        {
          "internalType": "address",
          "name": "from",
          "type": "address"
        },
        {
          "internalType": "address",
          "name": "to",
          "type": "address"
        },
        {
          "internalType": "uint256",
          "name": "tokenId",
          "type": "uint256"
        },
        {
          "internalType": "bytes",
          "name": "data",
          "type": "bytes"
        }
      ],
      "name": "safeTransferFrom",
      "outputs": [],
      "stateMutability": "nonpayable",
      "type": "function"
    },
    {
      "inputs": [
        {
          "internalType": "address",
          "name": "operator",
          "type": "address"
        },
        {
          "internalType": "bool",
          "name": "approved",
          "type": "bool"
        }
      ],
      "name": "setApprovalForAll",
      "outputs": [],
      "stateMutability": "nonpayable",
      "type": "function"
    },
    {
      "inputs": [
        {
          "internalType": "bytes4",
          "name": "interfaceId",
          "type": "bytes4"
        }
      ],
      "name": "supportsInterface",
      "outputs": [
        {
          "internalType": "bool",
          "name": "",
          "type": "bool"
        }
      ],
      "stateMutability": "view",
      "type": "function"
    },
    {
      "inputs": [],
      "name": "symbol",
      "outputs": [
        {
          "internalType": "string",
          "name": "",
          "type": "string"
        }
      ],
      "stateMutability": "view",
      "type": "function"
    },
    {
      "inputs": [
        {
          "internalType": "uint256",
          "name": "index",
          "type": "uint256"
        }
      ],
      "name": "tokenByIndex",
      "outputs": [
        {
          "internalType": "uint256",
          "name": "",
          "type": "uint256"
        }
      ],
      "stateMutability": "view",
      "type": "function"
    },
    {
      "inputs": [
        {
          "internalType": "address",
          "name": "owner",
          "type": "address"
        },
        {
          "internalType": "uint256",
          "name": "index",
          "type": "uint256"
        }
      ],
      "name": "tokenOfOwnerByIndex",
      "outputs": [
        {
          "internalType": "uint256",
          "name": "",
          "type": "uint256"
        }
      ],
      "stateMutability": "view",
      "type": "function"
    },
    {
      "inputs": [
        {
          "internalType": "uint256",
          "name": "tokenId",
          "type": "uint256"
        }
      ],
      "name": "tokenURI",
      "outputs": [
        {
          "internalType": "string",
          "name": "",
          "type": "string"
        }
      ],
      "stateMutability": "view",
      "type": "function"
    },
    {
      "inputs": [],
      "name": "totalSupply",
      "outputs": [
        {
          "internalType": "uint256",
          "name": "",
          "type": "uint256"
        }
      ],
      "stateMutability": "view",
      "type": "function"
    },
    {
      "inputs": [
        {
          "internalType": "address",
          "name": "from",
          "type": "address"
        },
        {
          "internalType": "address",
          "name": "to",
          "type": "address"
        },
        {
          "internalType": "uint256",
          "name": "tokenId",
          "type": "uint256"
        }
      ],
      "name": "transferFrom",
      "outputs": [],
      "stateMutability": "nonpayable",
      "type": "function"
    },
    {
      "inputs": [
        {
          "internalType": "address",
          "name": "newOwner",
          "type": "address"
        }
      ],
      "name": "transferOwnership",
      "outputs": [],
      "stateMutability": "nonpayable",
      "type": "function"
    }
  ],
  "bytecode": "0x60806040523480156200001157600080fd5b506040516200209d3803806200209d833981016040819052620000349162000251565b8151829082906200004d906000906020850190620000de565b50805162000063906001906020840190620000de565b505050620000806200007a6200008860201b60201c565b6200008c565b5050620002f8565b3390565b600b80546001600160a01b038381166001600160a01b0319831681179093556040519116919082907f8be0079c531659141344cd1fd0a4f28419497f9722a3daafe3b4186f6b6457e090600090a35050565b828054620000ec90620002bb565b90600052602060002090601f0160209004810192826200011057600085556200015b565b82601f106200012b57805160ff19168380011785556200015b565b828001600101855582156200015b579182015b828111156200015b5782518255916020019190600101906200013e565b50620001699291506200016d565b5090565b5b808211156200016957600081556001016200016e565b634e487b7160e01b600052604160045260246000fd5b600082601f830112620001ac57600080fd5b81516001600160401b0380821115620001c957620001c962000184565b604051601f8301601f19908116603f01168101908282118183101715620001f457620001f462000184565b816040528381526020925086838588010111156200021157600080fd5b600091505b8382101562000235578582018301518183018401529082019062000216565b83821115620002475760008385830101525b9695505050505050565b600080604083850312156200026557600080fd5b82516001600160401b03808211156200027d57600080fd5b6200028b868387016200019a565b93506020850151915080821115620002a257600080fd5b50620002b1858286016200019a565b9150509250929050565b600181811c90821680620002d057607f821691505b60208210811415620002f257634e487b7160e01b600052602260045260246000fd5b50919050565b611d9580620003086000396000f3fe608060405234801561001057600080fd5b50600436106101375760003560e01c80636352211e116100b857806395d89b411161007c57806395d89b411461027c578063a22cb46514610284578063b88d4fde14610297578063c87b56dd146102aa578063e985e9c5146102bd578063f2fde38b146102f957600080fd5b80636352211e1461022a57806370a082311461023d578063715018a6146102505780637b47ec1a146102585780638da5cb5b1461026b57600080fd5b806323b872dd116100ff57806323b872dd146101cb5780632f745c59146101de57806342842e0e146101f157806345576f94146102045780634f6ccce71461021757600080fd5b806301ffc9a71461013c57806306fdde0314610164578063081812fc14610179578063095ea7b3146101a457806318160ddd146101b9575b600080fd5b61014f61014a366004611838565b61030c565b60405190151581526020015b60405180910390f35b61016c61031d565b60405161015b91906118ad565b61018c6101873660046118c0565b6103af565b6040516001600160a01b03909116815260200161015b565b6101b76101b23660046118f0565b6103d6565b005b6009545b60405190815260200161015b565b6101b76101d936600461191a565b6104f1565b6101bd6101ec3660046118f0565b610522565b6101b76101ff36600461191a565b6105b8565b6101bd6102123660046119e2565b6105d3565b6101bd6102253660046118c0565b61065b565b61018c6102383660046118c0565b6106ee565b6101bd61024b366004611a2b565b61074e565b6101b76107d4565b6101b76102663660046118c0565b6107e8565b600b546001600160a01b031661018c565b61016c6108b3565b6101b7610292366004611a46565b6108c2565b6101b76102a5366004611a82565b6108d1565b61016c6102b83660046118c0565b610909565b61014f6102cb366004611afe565b6001600160a01b03918216600090815260056020908152604080832093909416825291909152205460ff1690565b6101b7610307366004611a2b565b610914565b60006103178261098a565b92915050565b60606000805461032c90611b31565b80601f016020809104026020016040519081016040528092919081815260200182805461035890611b31565b80156103a55780601f1061037a576101008083540402835291602001916103a5565b820191906000526020600020905b81548152906001019060200180831161038857829003601f168201915b5050505050905090565b60006103ba826109af565b506000908152600460205260409020546001600160a01b031690565b60006103e1826106ee565b9050806001600160a01b0316836001600160a01b031614156104545760405162461bcd60e51b815260206004820152602160248201527f4552433732313a20617070726f76616c20746f2063757272656e74206f776e656044820152603960f91b60648201526084015b60405180910390fd5b336001600160a01b0382161480610470575061047081336102cb565b6104e25760405162461bcd60e51b815260206004820152603e60248201527f4552433732313a20617070726f76652063616c6c6572206973206e6f7420746f60448201527f6b656e206f776e6572206e6f7220617070726f76656420666f7220616c6c0000606482015260840161044b565b6104ec8383610a0e565b505050565b6104fb3382610a7c565b6105175760405162461bcd60e51b815260040161044b90611b6c565b6104ec838383610afb565b600061052d8361074e565b821061058f5760405162461bcd60e51b815260206004820152602b60248201527f455243373231456e756d657261626c653a206f776e657220696e646578206f7560448201526a74206f6620626f756e647360a81b606482015260840161044b565b506001600160a01b03919091166000908152600760209081526040808320938352929052205490565b6104ec838383604051806020016040528060008152506108d1565b60003233146106245760405162461bcd60e51b815260206004820152601e60248201527f5468652063616c6c657220697320616e6f7468657220636f6e74726163740000604482015260640161044b565b610632600c80546001019055565b600061063d600c5490565b90506106493382610ca2565b6106538184610df0565b90505b919050565b600061066660095490565b82106106c95760405162461bcd60e51b815260206004820152602c60248201527f455243373231456e756d657261626c653a20676c6f62616c20696e646578206f60448201526b7574206f6620626f756e647360a01b606482015260840161044b565b600982815481106106dc576106dc611bba565b90600052602060002001549050919050565b6000818152600260205260408120546001600160a01b0316806106535760405162461bcd60e51b8152602060048201526018602482015277115490cdcc8c4e881a5b9d985b1a59081d1bdad95b88125160421b604482015260640161044b565b60006001600160a01b0382166107b85760405162461bcd60e51b815260206004820152602960248201527f4552433732313a2061646472657373207a65726f206973206e6f7420612076616044820152683634b21037bbb732b960b91b606482015260840161044b565b506001600160a01b031660009081526003602052604090205490565b6107dc610e8a565b6107e66000610ee4565b565b3233146108375760405162461bcd60e51b815260206004820152601e60248201527f5468652063616c6c657220697320616e6f7468657220636f6e74726163740000604482015260640161044b565b33610841826106ee565b6001600160a01b0316146108a75760405162461bcd60e51b815260206004820152602760248201527f4f6e6c7920746865206f776e6572206f662074686520746f6b656e2063616e20604482015266189d5c9b881a5d60ca1b606482015260840161044b565b6108b081610f36565b50565b60606001805461032c90611b31565b6108cd338383610f3f565b5050565b6108db3383610a7c565b6108f75760405162461bcd60e51b815260040161044b90611b6c565b6109038484848461100e565b50505050565b606061031782611041565b61091c610e8a565b6001600160a01b0381166109815760405162461bcd60e51b815260206004820152602660248201527f4f776e61626c653a206e6577206f776e657220697320746865207a65726f206160448201526564647265737360d01b606482015260840161044b565b6108b081610ee4565b60006001600160e01b0319821663780e9d6360e01b148061031757506103178261114a565b6000818152600260205260409020546001600160a01b03166108b05760405162461bcd60e51b8152602060048201526018602482015277115490cdcc8c4e881a5b9d985b1a59081d1bdad95b88125160421b604482015260640161044b565b600081815260046020526040902080546001600160a01b0319166001600160a01b0384169081179091558190610a43826106ee565b6001600160a01b03167f8c5be1e5ebec7d5bd14f71427d1e84f3dd0314c0f7b2291e5b200ac8c7c3b92560405160405180910390a45050565b600080610a88836106ee565b9050806001600160a01b0316846001600160a01b03161480610acf57506001600160a01b0380821660009081526005602090815260408083209388168352929052205460ff165b80610af35750836001600160a01b0316610ae8846103af565b6001600160a01b0316145b949350505050565b826001600160a01b0316610b0e826106ee565b6001600160a01b031614610b725760405162461bcd60e51b815260206004820152602560248201527f4552433732313a207472616e736665722066726f6d20696e636f72726563742060448201526437bbb732b960d91b606482015260840161044b565b6001600160a01b038216610bd45760405162461bcd60e51b8152602060048201526024808201527f4552433732313a207472616e7366657220746f20746865207a65726f206164646044820152637265737360e01b606482015260840161044b565b610bdf83838361119a565b610bea600082610a0e565b6001600160a01b0383166000908152600360205260408120805460019290610c13908490611be6565b90915550506001600160a01b0382166000908152600360205260408120805460019290610c41908490611bfd565b909155505060008181526002602052604080822080546001600160a01b0319166001600160a01b0386811691821790925591518493918716917fddf252ad1be2c89b69c2b068fc378daa952ba7f163c4a11628f55a4df523b3ef91a4505050565b6001600160a01b038216610cf85760405162461bcd60e51b815260206004820181905260248201527f4552433732313a206d696e7420746f20746865207a65726f2061646472657373604482015260640161044b565b6000818152600260205260409020546001600160a01b031615610d5d5760405162461bcd60e51b815260206004820152601c60248201527f4552433732313a20746f6b656e20616c7265616479206d696e74656400000000604482015260640161044b565b610d696000838361119a565b6001600160a01b0382166000908152600360205260408120805460019290610d92908490611bfd565b909155505060008181526002602052604080822080546001600160a01b0319166001600160a01b03861690811790915590518392907fddf252ad1be2c89b69c2b068fc378daa952ba7f163c4a11628f55a4df523b3ef908290a45050565b6000828152600260205260409020546001600160a01b0316610e6b5760405162461bcd60e51b815260206004820152602e60248201527f45524337323155524953746f726167653a2055524920736574206f66206e6f6e60448201526d32bc34b9ba32b73a103a37b5b2b760911b606482015260840161044b565b600082815260066020908152604090912082516104ec92840190611753565b600b546001600160a01b031633146107e65760405162461bcd60e51b815260206004820181905260248201527f4f776e61626c653a2063616c6c6572206973206e6f7420746865206f776e6572604482015260640161044b565b600b80546001600160a01b038381166001600160a01b0319831681179093556040519116919082907f8be0079c531659141344cd1fd0a4f28419497f9722a3daafe3b4186f6b6457e090600090a35050565b6108b0816111a5565b816001600160a01b0316836001600160a01b03161415610fa15760405162461bcd60e51b815260206004820152601960248201527f4552433732313a20617070726f766520746f2063616c6c657200000000000000604482015260640161044b565b6001600160a01b03838116600081815260056020908152604080832094871680845294825291829020805460ff191686151590811790915591519182527f17307eab39ab6107e8899845ad3d59bd9653f200f220920489ca2b5937696c31910160405180910390a3505050565b611019848484610afb565b611025848484846111e5565b6109035760405162461bcd60e51b815260040161044b90611c15565b606061104c826109af565b6000828152600660205260408120805461106590611b31565b80601f016020809104026020016040519081016040528092919081815260200182805461109190611b31565b80156110de5780601f106110b3576101008083540402835291602001916110de565b820191906000526020600020905b8154815290600101906020018083116110c157829003601f168201915b5050505050905060006110fc60408051602081019091526000815290565b905080516000141561110f575092915050565b815115611141578082604051602001611129929190611c67565b60405160208183030381529060405292505050919050565b610af3846112f2565b60006001600160e01b031982166380ac58cd60e01b148061117b57506001600160e01b03198216635b5e139f60e01b145b8061031757506301ffc9a760e01b6001600160e01b0319831614610317565b6104ec838383611366565b6111ae8161141e565b600081815260066020526040902080546111c790611b31565b1590506108b05760008181526006602052604081206108b0916117d7565b60006001600160a01b0384163b156112e757604051630a85bd0160e11b81526001600160a01b0385169063150b7a0290611229903390899088908890600401611c96565b602060405180830381600087803b15801561124357600080fd5b505af1925050508015611273575060408051601f3d908101601f1916820190925261127091810190611cd3565b60015b6112cd573d8080156112a1576040519150601f19603f3d011682016040523d82523d6000602084013e6112a6565b606091505b5080516112c55760405162461bcd60e51b815260040161044b90611c15565b805181602001fd5b6001600160e01b031916630a85bd0160e11b149050610af3565b506001949350505050565b60606112fd826109af565b600061131460408051602081019091526000815290565b90506000815111611334576040518060200160405280600081525061135f565b8061133e846114c5565b60405160200161134f929190611c67565b6040516020818303038152906040525b9392505050565b6001600160a01b0383166113c1576113bc81600980546000838152600a60205260408120829055600182018355919091527f6e1540171b6c0c960b71a7020d9f60077f6af931a8bbf590da0223dacf75c7af0155565b6113e4565b816001600160a01b0316836001600160a01b0316146113e4576113e483826115c3565b6001600160a01b0382166113fb576104ec81611660565b826001600160a01b0316826001600160a01b0316146104ec576104ec828261170f565b6000611429826106ee565b90506114378160008461119a565b611442600083610a0e565b6001600160a01b038116600090815260036020526040812080546001929061146b908490611be6565b909155505060008281526002602052604080822080546001600160a01b0319169055518391906001600160a01b038416907fddf252ad1be2c89b69c2b068fc378daa952ba7f163c4a11628f55a4df523b3ef908390a45050565b6060816114e95750506040805180820190915260018152600360fc1b602082015290565b8160005b811561151357806114fd81611cf0565b915061150c9050600a83611d21565b91506114ed565b60008167ffffffffffffffff81111561152e5761152e611956565b6040519080825280601f01601f191660200182016040528015611558576020820181803683370190505b5090505b8415610af35761156d600183611be6565b915061157a600a86611d35565b611585906030611bfd565b60f81b81838151811061159a5761159a611bba565b60200101906001600160f81b031916908160001a9053506115bc600a86611d21565b945061155c565b600060016115d08461074e565b6115da9190611be6565b60008381526008602052604090205490915080821461162d576001600160a01b03841660009081526007602090815260408083208584528252808320548484528184208190558352600890915290208190555b5060009182526008602090815260408084208490556001600160a01b039094168352600781528383209183525290812055565b60095460009061167290600190611be6565b6000838152600a60205260408120546009805493945090928490811061169a5761169a611bba565b9060005260206000200154905080600983815481106116bb576116bb611bba565b6000918252602080832090910192909255828152600a909152604080822084905585825281205560098054806116f3576116f3611d49565b6001900381819060005260206000200160009055905550505050565b600061171a8361074e565b6001600160a01b039093166000908152600760209081526040808320868452825280832085905593825260089052919091209190915550565b82805461175f90611b31565b90600052602060002090601f01602090048101928261178157600085556117c7565b82601f1061179a57805160ff19168380011785556117c7565b828001600101855582156117c7579182015b828111156117c75782518255916020019190600101906117ac565b506117d392915061180d565b5090565b5080546117e390611b31565b6000825580601f106117f3575050565b601f0160209004906000526020600020908101906108b091905b5b808211156117d3576000815560010161180e565b6001600160e01b0319811681146108b057600080fd5b60006020828403121561184a57600080fd5b813561135f81611822565b60005b83811015611870578181015183820152602001611858565b838111156109035750506000910152565b60008151808452611899816020860160208601611855565b601f01601f19169290920160200192915050565b60208152600061135f6020830184611881565b6000602082840312156118d257600080fd5b5035919050565b80356001600160a01b038116811461065657600080fd5b6000806040838503121561190357600080fd5b61190c836118d9565b946020939093013593505050565b60008060006060848603121561192f57600080fd5b611938846118d9565b9250611946602085016118d9565b9150604084013590509250925092565b634e487b7160e01b600052604160045260246000fd5b600067ffffffffffffffff8084111561198757611987611956565b604051601f8501601f19908116603f011681019082821181831017156119af576119af611956565b816040528093508581528686860111156119c857600080fd5b858560208301376000602087830101525050509392505050565b6000602082840312156119f457600080fd5b813567ffffffffffffffff811115611a0b57600080fd5b8201601f81018413611a1c57600080fd5b610af38482356020840161196c565b600060208284031215611a3d57600080fd5b61135f826118d9565b60008060408385031215611a5957600080fd5b611a62836118d9565b915060208301358015158114611a7757600080fd5b809150509250929050565b60008060008060808587031215611a9857600080fd5b611aa1856118d9565b9350611aaf602086016118d9565b925060408501359150606085013567ffffffffffffffff811115611ad257600080fd5b8501601f81018713611ae357600080fd5b611af28782356020840161196c565b91505092959194509250565b60008060408385031215611b1157600080fd5b611b1a836118d9565b9150611b28602084016118d9565b90509250929050565b600181811c90821680611b4557607f821691505b60208210811415611b6657634e487b7160e01b600052602260045260246000fd5b50919050565b6020808252602e908201527f4552433732313a2063616c6c6572206973206e6f7420746f6b656e206f776e6560408201526d1c881b9bdc88185c1c1c9bdd995960921b606082015260800190565b634e487b7160e01b600052603260045260246000fd5b634e487b7160e01b600052601160045260246000fd5b600082821015611bf857611bf8611bd0565b500390565b60008219821115611c1057611c10611bd0565b500190565b60208082526032908201527f4552433732313a207472616e7366657220746f206e6f6e20455243373231526560408201527131b2b4bb32b91034b6b83632b6b2b73a32b960711b606082015260800190565b60008351611c79818460208801611855565b835190830190611c8d818360208801611855565b01949350505050565b6001600160a01b0385811682528416602082015260408101839052608060608201819052600090611cc990830184611881565b9695505050505050565b600060208284031215611ce557600080fd5b815161135f81611822565b6000600019821415611d0457611d04611bd0565b5060010190565b634e487b7160e01b600052601260045260246000fd5b600082611d3057611d30611d0b565b500490565b600082611d4457611d44611d0b565b500690565b634e487b7160e01b600052603160045260246000fdfea26469706673582212206ecdc193616d06b78b37a4cd78e3e464f3b2056323cea0404f87a46b38adb37a64736f6c63430008090033",
  "linkReferences": {},
  "deployedLinkReferences": {}
}